S00F000070726F6A6563742E737265631E
S31560000000000000000000000000000000000000008A
S31560000010000000004C00006000600000002010003E
S3156000002000000000000000003F0000000000070024
S31560000030000000000000000000000000000000005A
S315600000400000000006000000A8E0000083070BE344
S31560000050000040E3300F81EE111F91EE801581E3C1
S31560000060111F81EE38009FE5100F0CEE101F1FEE7A
S31560000070021081E3011081E34FF07FF5101F0FEE50
S315600000806FF07FF500000FE11F00C0E3130080E30F
S3156000009000F36EE10C109FE501F32EE16E0060E166
S315600000A01EFF2FE1000000106C20100004F01FE519
S315600000B0C121100000BE704748E09FE548009FE5FB
S315600000C048109FE548209FE548309FE548C09FE57A
S315600000D0110002F10ED0A0E1120002F100D0A0E101
S315600000E0170002F101D0A0E11B0002F102D0A0E1ED
S315600000F01F0002F103D0A0E1130002F10CD0A0E1D1
S31560000100060000EA1EFF2FE1204710002043100082
S31560000110204F1000204B1000203B1000203F1000A5
S3156000012000502DE9020000FA090000FB0140BDE81D
S31560000130DDFFFFEA11EE500F40F4700001EE500F44
S31560000140BFF36F8FF8EE100A40F08040E8EE100AB9
S31560000150BFF36F8F70471BEE100FBFF34F8F40F0EA
S3156000016003000BEE100FBFF36F8F704710B511EEE3
S31560000170100FBFF34F8F01EE100FBFF36F8F104854
S315600001800AEE120F0F480AEE320FBFF34F8F0024AC
S3156000019009E00D4800EBC4014A6850F83410204667
S315600001A000F014F8641C182CF3D300F0FBFD00F08B
S315600001B0EDFD00F0D3FDBDE8104000F0DBBD0000B2
S315600001C0FFBB88440004080C082E100006EE320FB0
S315600001D0BFF34F8F06EE131FBFF34F8F06EE332F1D
S315600001E0BFF34F8F7047F82004EE160F01200CEE18
S315600001F0FC0F1CEE9C0F40F001000CEE9C0FBFF351
S315600002006F8F7047DFF800F06D39001080B5002001
S3156000021000F014FE00F096F9012000F00FFE00F0E9
S3156000022079F800F07DF800F04FF9FFF79FFF00F0D6
S31560000230BBF800F0D7F800F045F9022000F0FEFDAB
S3156000024000F010F800F057F8FFF7CDFF00F060FA05
S3156000025000F0CDF8BDE80140FFF7D4BFDFF800F04D
S315600002608BED011038B5032000F074FA00243BE0F2
S315600002706D4800EBC40320016C4A19681150596837
S31560000280024451606A491A6C0A505A6C01444A60C9
S31560000290684DD3F88010295003F184010A6805443B
S315600002A06A60654ACD6B15500D6C02445560634AB1
S315600002B0C96F115003F582710D6802445560604D37
S315600002C0CA6B2A500A6C05446A605E4AC96F11504F
S315600002D003F5C2710B68024453605B4ACB6B1350E3
S315600002E0096C10444160641C082CC1DB0320BDE826
S315600002F0324000F00FBA554801684908490001606C
S315600003005349016200218160C160016841F00101C9
S31560000310016070474F4A5048121A5049504805E0EC
S3156000032050495148091A514820E00000002A00D17E
S31560000330704730B410F0030309D0002504E010F8CC
S31560000340014B01F8014B6D1C9D42F8D3D21AD21CA9
S31560000350002404E050F8043B41F8043B641CB4EB11
S31560000360920FF7D3BFF34F8F30BC7047002900D18F
S31560000370704710B410F0030208D00024234602E050
S3156000038000F8013B641C9442FAD3891AC91C002305
S315600003901A4602E040F8042B5B1CB3EB910FF9D3CD
S315600003A0BFF34F8F10BC704780B5314A3148121A7F
S315600003B031493248FFF7BAFF314A3248121A324998
S315600003C03248FFF7B3FF324A3248121A324933488D
S315600003D0FFF7ACFF324A3348121A33493348BDE857
S315600003E00840A3E732493348091A3348BEE780B567
S315600003F0012000F0AFF914EE160F002104EE161F6F
S315600004002E4A116821F02001116011682C490A7882
S315600004100A780A780A78097804EE160F0120BDE892
S31560000420024000F077B90000503D021000112881AB
S315600004300012288100132881001428810015288164
S3156000044000172881001C2881001D2881000006C035
S3156000045040787D01C82E1000082E1000082E10006E
S31560000460540E00601C371000C82E1000C82E1000F5
S315600004704400001000000010000000100000026040
S315600004806CEF011000010010000100100001026015
S31560000490645602106CEF01106CEF011000000760EB
S315600004A0008013300080133000801330F8660760D8
S315600004B0E22C031068560210685602100803288062
S315600004C008300090FFF7CABE58490868C0F340106C
S315600004D0096801F00101564A002804D1554800FA1E
S315600004E001F111607047544800FA01F111607047DC
S315600004F082B04E48524901600168009101680091DE
S31560000500016800910168009101680091016800919D
S31560000510016800910068009048484A490160016896
S31560000520009101680091016800910168009101687D
S315600005300091016800910168009100680090009840
S3156000054002B0C1E738B5002000903F4C4AF2015036
S3156000055020603E4D2860FFF7B7FFFFF7C9FF3C48B4
S3156000056001210160002349F6404101E000BF5B1CA8
S315600005701A4692B28A42F9DB0321016135490120AC
S31560000580088140F2FF308881A5220A7401220A7030
S31560000590FE220A7001220A700A78012A01D00A7DB9
S315600005A000920A7DD207EFD42B4901220A81888105
S315600005B0A5220A7401220A70FE220A7001220A70BC
S315600005C00A78012A01D00A7D00920A7DD207EFD40B
S315600005D0224901220A818881A5220A7401220A70B1
S315600005E0FE220A7001220A700A78012A01D00A7D69
S315600005F000920A7DD207EFD4194901220A818881C7
S31560000600A520087410460870FE2008701046087011
S315600006100878012801D0087D0090087DC007EFD4D6
S315600006204FF4254020602860009831BD0400288181
S315600006309836100000C2EB0B80D1F00800002880CD
S3156000064011000003060632FF101A2880001A28815E
S3156000065070002881000828812008288140082881A8
S31560000660600828814FF01440016841F00201016082
S3156000067000212248016009E0214850F821004FF02E
S31560000680144202EB8102C2F8080C491C1C29F3D300
S3156000069000210AE04FF0144000EB81024FF0FF307A
S315600006A0C2F88402C2F88403491C0D29F2D362B6EB
S315600006B061B664B6BFF36F8F7047000010B5C0F3C4
S315600006C00900A0F120010F4C2278134604EB430386
S315600006D09980521C2270BFF35F8F202805DB0A4881
S315600006E009B250F82100804703E0084951F820001C
S315600006F080472078401E207010BD000014001094C2
S31560000700F4FB01104C361000A44E02109C3610000B
S31560000710FFF7A8BF1D4A32F81010002904D032F83E
S315600007201010491E22F8101032F81010002910D14E
S3156000073019A131F81000C04380B2154A116841F41E
S31560000740254101401160134A116841F42541084072
S315600007501060704710B40D4A32F8101000290ED19F
S315600007600DA131F810100A4C23680B4343F425435E
S315600007702360084C2368194341F42541216032F80F
S315600007801010491C22F8101010BC704790361000EB
S31560000790101A2880001A288101000200040008004F
S315600007A0DFF8902510180A4600EB222090F8000822
S315600007B0084100F00100704710B414EE161F0020C7
S315600007C004EE160FDFF87025106800280BD14AF288
S315600007D00450DFF86845236803432360DFF860450B
S315600007E02368184320601068401C106004EE161FD2
S315600007F010BC704714EE161F002004EE160FDFF8CB
S3156000080038251068002802D01068401E10601068F5
S3156000081000280FD14FF6FB70DFF820351A680240CA
S3156000082042F425421A60DFF818351A68104040F421
S315600008302540186004EE161F7047DFF8082501464C
S315600008400912515C014111F0010102D14FF47900A6
S3156000085070470020704710B50C46DFF8EC14016055
S315600008608460204600F028F9A06800F0DEF90020D8
S3156000087010BD002101600846704780B5084600F04B
S315600008801BF9002002BD16B50C46FFF795FF01A9BE
S31560000890204600F027F9FFF7ADFF002016BD38B5FA
S315600008A00D4614462846FFF7C8FF2946FFF778FF2E
S315600008B02070002032BD10B489B2090ADFF88404C2
S315600008C0405CDFF888345B5C0340DFF88444615C3D
S315600008D021EA000018431080002010BC704770B4F5
S315600008E003F0FF0389B2090ADFF85804405C13EA93
S315600008F0000406D0DFF83C546E5CA64314403443D3
S315600009006C54834306D0DFF84C04445C9C431A4025
S3156000091022434254002070BC704710B4084680B22F
S31560000920000A01F0FF01DFF81C341B5C0B41DB079A
S3156000093002D5DFF8003401E0DFF81834012404FA48
S3156000094001F1002A1A5C03D122EA0101195401E07F
S3156000095011431954002010BC7047F0B403F0FF0334
S3156000096000241FE0DFF8EC530FE00125A540184690
S31560000970284216D0084680B2000ADFF8C8532D5CBC
S315600009802541ED07EED5DFF8AC5303276600B74087
S3156000099005EB4000B0F80052BD4317402F43A0F866
S315600009A00072641C082CE0D30020F0BC704710B4C1
S315600009B00023806880680C46B4F5805F03D0B1F58B
S315600009C0905F00D10123DFF86C1301EB830191F88E
S315600009D0041E03EB83031844C07901401180002094
S315600009E010BC704700200B469BB203F47F4301F0B6
S315600009F0FF01B3F5805F03D0B3F5905F00D10120AE
S31560000A00CC4B03EB800090F8043E012000FA01F124
S31560000A10C9B20B408B4201D1107001E0002010700A
S31560000A2000207047F8B50F4614461D460026FFF7AE
S31560000A30C3FE3846B0F5805F03D0B7F5905F00D14E
S31560000A400126BC4800EB860191F8040E20EA0505F4
S31560000A502C4381F8044EFFF7CDFE0020F2BDF8B5B9
S31560000A600C461546002680688768FFF7A5FE314666
S31560000A700AE002EB420007EB4000B0F91020204686
S31560000A80824200D10E46491C0A46D2B2042AF0DBE5
S31560000A90A848F6B23044012D90F80C1E04D141F0FE
S31560000AA0200180F80C1E03E001F0DF0180F80C1EC7
S31560000AB0FFF7A0FE0020F2BD38B50446FFF77CFEC6
S31560000AC0002509E0606800EBC501001D30F93500BE
S31560000AD000F008F86D1CADB220888542F2DBBDE8F7
S31560000AE0314087E6F0B50A4603469BB21B0A00F022
S31560000AF0FF00012404FA00F5924E1168C1F38031BB
S31560000B000029F15C03D02943F1548A4E02E0A943DF
S31560000B10F154904E032817D806EBC30101F5206106
S31560000B20C700D1F800C04FF0FF0E0EFA07FE2CEAA0
S31560000B300E0CD2F800E0CEF3052E0EFA07F747EA60
S31560000B400C0CC1F800C019E018D900F1FC01C9000D
S31560000B5006EBC30707F52067D7F804C04FF0FF0E12
S31560000B600EFA01FE2CEA0E0CD2F800E0CEF3052E4A
S31560000B700EFA01F141EA0C0CC7F804C0F718D2F876
S31560000B8000C0CCF3C001002919D0810006EB8303B5
S31560000B90D3F800460F258D40AC43CCF3031505FA18
S31560000BA001F10C43C3F8004697F800141268C2F3CB
S31560000BB0C00202FA00F0084387F80004F0BDE9437A
S31560000BC097F800C401EA0C0C87F800C41768C7F3ED
S31560000BD0410CBCF1010F0CD1400006EB4301B1F8AA
S31560000BE0003203228240934384401C43A1F80042B2
S31560000BF0F0BD19D9FC0703D4F45C2140F15403E03D
S31560000C0002D5F15C0D43F554400006EB4301B1F8A3
S31560000C10003203248440A3431268C2F3410202FAFD
S31560000C2000F00343A1F80032F0BDF8B50546002692
S31560000C3034462746FFF7C0FD204627E08E7C7601C6
S31560000C40F6B21E4318E0122E01D143F010034CEAAF
S31560000C500303CE7B012EF1D1CE7C7601F6B21E4324
S31560000C60DFF8F4E09EF800304FF0010C0CFA00FC5F
S31560000C704CEA03038EF8003082F80C6E897B0129FA
S31560000C8003D101218140C9B20C43401C042814DA07
S31560000C9000EB400105EB4101B1F810C06646360A2B
S31560000CA05FFA8CFC234A024492F80C3E03F0800300
S31560000CB0102EC8D143F00803C9E738462FE000EB91
S31560000CC0800129441B4A131891F807E015F810C0F3
S31560000CD04CEA0E0E83F800EE91F804C0BCF1010FE9
S31560000CE014D193F802CE0CF0880C4E7946EA0C06C5
S31560000CF091F806C046EA8C06F6B2097A02EB8002E3
S31560000D0082F8041E01218140C9B20F4305EB400100
S31560000D1049780901C9B20E4383F8026E401C012866
S31560000D20CDDDB80040EA04100B494870BDE8F140DB
S31560000D3060E5000000000A80C82E1000101A2880A6
S31560000D40001A2881000C038154524F5000080A8013
S31560000D500008038100000381100E0A8011EE100F57
S31560000D60BFF34F8F50F4805001EE100FBFF36F8FBB
S31560000D707047000011EE100FBFF34F8F50F0040064
S31560000D8001EE100FBFF36F8F7047000011EE100F6A
S31560000D90BFF34F8F50F0010001EE100FBFF36F8F5E
S31560000DA070470000BFF34F8F002007EE150FBFF3AB
S31560000DB05F8F30EE303FC3F30262002A00D1704786
S31560000DC02DE9F04104460FE0401E00FA06F847EAB6
S31560000DD0080801FA0CFE4EEA080807EE568F00284E
S31560000DE0F2D1002921D1641C944221D2214601EB23
S31560000DF041011846C84000F007000128F3D9670092
S31560000E0040EE107FBFF34F8F30EE101F01F0070CDE
S31560000E100CF1040CC1F3C9000546C1F34E31B5FAB5
S31560000E2085F6202E02D11F2600E0491E2846CCE713
S31560000E30BFF34F8FBFF36F8FBDE8F081022804D1F7
S31560000E40024841680248FFF706BD70471408021061
S31560000E50945B021012000000C7FF01001200100030
S31560000E60C7FF110002000010C3FF17101200003008
S31560000E70C7FF173012000040C7FFFF5F0200006027
S31560000E80C3FFFF7F13000080CBFFFF80130000814C
S31560000E90CBFFFF8113000090CBFF1F9013000094DF
S31560000EA0C9FF1F94130000C0C9FFFFC00000000007
S31560000EB000000000000000000000000000000000CC
S31560000EC000000000000000000000000000000000BC
S31560000ED000000000000000000000000000000000AC
S31560000EE0000000000000000000000000000000009C
S31560000EF0000000000000000000000000000000008C
S31560000F00000000000000000000000000000000007B
S30960000F100000000077
S3156002000020F09FE520F09FE520F09FE520F09FE538
S3156002001020F09FE520F09FE520F09FE500F09FE548
S315600200201EFF2FE1692010000801001069201000F0
S3156002003091830110B5830110D9830110FD830110EC
S30960020040B03A00105A
S3156002010004F01FE500201000310F19EEFC1F01E319
S31560020110001040E3010000E0031000E3101040E32A
S31560020120010080E14FF07FF5310F09EE6FF07FF548
S31560020130F2FFFFEA1EFF2FE117F090BA16F07EBEBD
S3156002014017F01CBC18B40C46E41E012C04D822F429
S31560020150004218BC17F0BDBF18BC17F065BF00009F
S3156002016010B5040040F007804FF4AC720FF2100134
S315600201700AA00BF019FD00BF0AA06064002010BD42
S3156002018073616C5F6C7769705F6E65746465765F68
S315600201907365745F70665F696E666F006E657464C0
S315600201A065760000020000000000000080F6011083
S315600201B0C4F6011010B50C46216801F10C02214605
S315600201C01CF0EAF9010001D194F9040010BD38B5BA
S315600201D086B00D46114601F08AF8040053D08DF8B8
S315600201E0085000946946DFF84407FFF7E3FF0028EA
S315600201F049D06068002809D0DFF8345728460BF0EA
S315600202006FFD892105F1240018F00CFB04F1100042
S3156002021018F0C7FA002808D10FF254700BF060FD8F
S315600202208A21DFF8100718F0FDFA04F1140018F0BD
S31560020230B8FA00280AD0DFF8F85605F1A8000BF0E4
S315600202404FFD8C2105F1240018F0ECFA04F10C0044
S3156002025018F0ABF9002808D10FF22C700BF040FDB4
S315600202608F21DFF8D00618F0DDFA04F10C0018F0E1
S3156002027057F904F1100018F01BFA214606200CF01B
S31560020280F3FD002000E0204607B030BD10B586B011
S31560020290040001D100200EE0009418F0D9FA039010
S315600202A06946DFF89406FFF785FF010003D1204611
S315600202B001F075F8002006B010BD80B586B0002842
S315600202C00BD10FF2E0600BF00BFDD921DFF864066B
S315600202D018F0A8FA6FF00F0025E000290BD10FF293
S315600202E0E4600BF0FDFCDA21DFF8480618F09AFAB2
S315600202F06FF00F0017E0002A0BD10FF2E8600BF0E7
S31560020300EFFCDB21DFF82C0618F08CFA6FF00F0099
S3156002031009E000908DF81030029103926946DFF889
S315600203201C06FFF747FF07B000BD80B586B0002800
S315600203300BD10FF2D0600BF0D3FCFF21DFF8F4058E
S3156002034018F070FA6FF00F000CE0002901D1DFF8A7
S31560020350F01500900291ADF80C206946DFF8E405CD
S31560020360FFF728FF07B000BD80B586B000280CD124
S315600203700FF2AC600BF0B4FC40F22B11DFF8B4055F
S3156002038018F050FA6FF00F000CE0002901D1DFF887
S31560020390B01500900291ADF80C206946DFF8A80509
S315600203A0FFF708FF07B000BD10B586B000280ED172
S315600203B0DFF87C4504F1CC000BF092FC40F24B1165
S315600203C004F1240018F02EFA6FF00F0005E0009099
S315600203D06946DFF87805FFF7EDFE06B010BD80B519
S315600203E086B000280CD10FF258600BF079FC4FF4FE
S315600203F0B471DFF8400518F015FA6FF00F0005E0EA
S3156002040000906946DFF84805FFF7D4FE07B000BDE5
S31560020410F8B504460D000CD10FF244600BF060FC97
S3156002042040F28D11DFF80C0518F0FCF96FF00F0041
S31560020430F2BD00202860002C0CD10FF244600BF054
S315600204404FFC40F28F11DFF8EC0418F0EBF96FF015
S315600204500F00F2BD94F908006FF00B070146B9422E
S3156002046035DB04F1140018F09CF900282AD0226AC0
S31560020470694604F1140018F05BF910F1010F02D11C
S315600204806FF00200F2BD009EA36B002B03D0002228
S315600204900121204698470099DFF8B804814202D1CB
S315600204A06FF00C00F2BD002E0FD1002C0AD018F0AE
S315600204B0B4F994F90810B94202DB6FF00E012172A9
S315600204C018F0ADF96FF00E00F2BD2E600020F2BD9D
S315600204D078B587B005460C4600200090002C0CD1FA
S315600204E00FF2BC500BF0FCFB40F2E711DFF844045C
S315600204F018F098F96FF00F009EE02060002D0CD185
S315600205000FF2BC500BF0ECFB40F2E911DFF8240469
S3156002051018F088F96FF00F008EE0287800F0F0008E
S31560020520102811D105F1100018F03BF900280BD103
S3156002053005F1140018F035F9002802D06FF00A00B0
S315600205407AE06FF00E0077E005F1100018F029F9F5
S3156002055000280CD10FF284500BF0C2FB40F2F51169
S31560020560DFF8D00318F05EF96FF00A0064E095F9DF
S315600205700800014611F10C0F5EDB2A6A694605F135
S31560020580100018F0D5F810F1010F02D16FF00200D9
S3156002059052E0287800F0F00010282BD101950098DF
S315600205A0002803D000980089039001E0012003909F
S315600205B001A9DFF8A403FFF7FDFD0098002817D113
S315600205C0AB6B002B03D0002201212846984768684E
S315600205D0002806D195F9080000282DD16FF00D008C
S315600205E02AE00121284600F00EF96FF00E0023E0A2
S315600205F006890FE00098002809D10FF200500BF02F
S315600206006FFB40F23E21DFF82C0318F00BF90098DD
S315600206100068068918F001F9AA6A3146521AAA6276
S3156002062018F0FDF8AB6B002B03D032460121284649
S31560020630984700982060002008B070BD80B50028F9
S3156002064004D0027802F0F002102A0BD00FF270404A
S315600206500BF046FB40F25E21B64818F0E3F86FF005
S315600206600F0002BDBDE8044032E7F8B506460C004D
S315600206700BD10FF22C400BF033FB4FF41D71AD48DA
S3156002068018F0D0F86FF00F00F2BD00202060002E47
S315600206900BD10FF22C400BF023FB40F27621A548DA
S315600206A018F0C0F86FF00F00F2BD307800F0F0007D
S315600206B0102830D1002000909D4F4FF4207207F130
S315600206C0240105200CF094FB050002D14FF0FF30A7
S315600206D0F2BD69463046FFF7FBFE060005D02946A5
S315600206E005200CF0C1FB3046F2BD0098002809D106
S315600206F00FF214400BF0F4FA40F28A2107F124005B
S3156002070018F090F800982860009868600020A88128
S31560020710A8602560F2BD3046FFF7DAFEF2BD80B50D
S3156002072086B000280BD10FF2EC300BF0D9FA40F20A
S31560020730C321804818F076F86FF00F0005E000904C
S31560020740029169468548FFF735FD07B000BD70B571
S3156002075086B0154600280BD10FF2D4300BF0C0FAE2
S3156002076040F2E621734818F05DF86FF00F0048E03A
S31560020770027802F0F002102A0DD06D4C04F1F000FE
S315600207800BF0AEFA40F2E72104F1240018F04AF8C1
S315600207906FF0050035E0002D01D1002031E090F8C0
S315600207A02C20520802F001021E46B60806F0010627
S315600207B01643C269002A00D001260A9C320004D080
S315600207C0002C02D16FF005001BE0009002918DF8BB
S315600207D010300395C069002803D018F039F80590E7
S315600207E001E00020059069465D48FFF7E3FC0100E1
S315600207F007D1002C05D0002E02D00399216000E0BB
S31560020800256006B070BD80B586B000280BD10FF2A8
S315600208103C300BF065FA4FF44A71464818F002F81C
S315600208206FF00F0009E000908DF8081018F010F8CC
S31560020830039069464B48FFF7BDFC07B000BD0B4607
S315600208405B1E9B41DB43002A01D0022100E00021AE
S3156002085051EAD3731946D6E710B586B000280DD192
S31560020860334C04F58A700BF03BFA4FF45C7104F179
S31560020870240017F0D7FF6FF00F000EE0002900D1B9
S315600208802F49002A00D12E4A0090029103928DF8D8
S31560020890103069463448FFF78DFC06B010BD10B5BE
S315600208A086B000280DD1224C04F59E700BF018FA22
S315600208B040F2A53104F1240017F0B4FF6FF00F0087
S315600208C031E000290DD11A4C04F5B0700BF008FA2C
S315600208D040F2A63104F1240017F0A4FF6FF00F0076
S315600208E021E06A46059201AA0492039102900021D0
S315600208F0104617F0E5FD8DF80000002813D101229D
S3156002090002A91A481BF010FE0400049803D017F0DF
S3156002091007FE204607E0002117F01CFE049817F038
S31560020920FFFD9DF9000006B010BD0000B512001073
S31560020930D4F60110F8F6011089170010C1210010D3
S315600209402C17021049190010B11A0010FD1B001075
S31560020950431C0010D42C0310E71D00104D1D00101F
S31560020960B92000109D220010B1230010412400100E
S31560020970636F6E6E20686173206E6F207265637638
S315600209806D626F7800000000636F6E6E206861733F
S31560020990206E6F206F705F636F6D706C65746564D7
S315600209A0000000006E6574636F6E6E5F67657461EA
S315600209B06464723A20696E76616C696420636F6EF4
S315600209C06E0000006E6574636F6E6E5F676574615C
S315600209D06464723A20696E76616C696420616464EB
S315600209E0720000006E6574636F6E6E5F6765746138
S315600209F06464723A20696E76616C696420706F72A3
S31560020A00740000006E6574636F6E6E5F62696E6419
S31560020A103A20696E76616C696420636F6E6E00005F
S31560020A206E6574636F6E6E5F636F6E6E6563743AE6
S31560020A3020696E76616C696420636F6E6E00000079
S31560020A406E6574636F6E6E5F6C697374656E3A2001
S31560020A50696E76616C696420636F6E6E0000000079
S31560020A606E6574636F6E6E5F6163636570743A2000
S31560020A70696E76616C696420706F696E7465720006
S31560020A806E6574636F6E6E5F6163636570743A20E0
S31560020A90696E76616C696420636F6E6E0000000039
S31560020AA06E6574636F6E6E5F726563763A20696EA9
S31560020AB076616C696420706F696E7465720000009D
S31560020AC06E6574636F6E6E5F726563763A20696E89
S31560020AD076616C696420636F6E6E00006E65746326
S31560020AE06F6E6E5F726563763A20696E76616C6967
S31560020AF06420726563766D626F7800006275662047
S31560020B00213D204E554C4C007020213D204E554CC7
S31560020B104C0000006E6574636F6E6E5F73656E6423
S31560020B203A20696E76616C696420636F6E6E00004E
S31560020B306E6574636F6E6E5F77726974653A20690B
S31560020B406E76616C696420636F6E6E006E65746347
S31560020B506F6E6E5F636C6F73653A20696E76616CF9
S31560020B60696420636F6E6E00F8B505460F461646D9
S31560020B70002D50D005F1100017F013FE00284AD060
S31560020B8017F04BFEAC6A17F04AFE3189686A621842
S31560020B90904240DB002204200FF0F0F9040008D0F6
S31560020BA031460FF0BBFC002803D020460FF0F3FB62
S31560020BB00024002C2FD08122DFF8701B05200CF058
S31560020BC017F9060004D120460FF0E5FB0020F2BDBE
S31560020BD034607460DFF8580B0069B060387CB081AD
S31560020BE02489314605F1100017F096FD002804D0DD
S31560020BF030460CF04BFC0020F2BD17F00EFEA96ADF
S31560020C000919A96217F00BFEAB6B002B03D02246C3
S31560020C100021284698470020F2BD00002DE9F041E8
S31560020C2004460E4617461D46002E09D1DFF8FC8A99
S31560020C3008F184000BF054F8B121404617F0F2FD3A
S31560020C40002C07D12DA00BF04BF8B221DFF8DC0A9D
S31560020C5017F0E8FD002C23D06068B04208D000BFD0
S31560020C602EA00BF03DF8BA21DFF8C00A17F0DAFDC4
S31560020C7017F0D3FDA66A17F0D2FD04F1100017F043
S31560020C8090FD00280CD0606A39897118884207DBAA
S31560020C90C722DFF8981A05200CF0AAF8060004D1DC
S31560020CA03846BDE8F0410FF076BB37607760002DBD
S31560020CB001D1002100E029680698B160B0813D89C2
S31560020CC0314604F1100017F027FD002804D03046A3
S31560020CD0BDE8F0410CF0DABB17F09FFDA16A491935
S31560020CE0A16217F09CFDA36B002B05D02A4600215A
S31560020CF02046BDE8F0411847BDE8F081726563762B
S31560020D005F756470206D75737420686176652061A5
S31560020D106E20617267756D656E74000072656376CA
S31560020D205F7564703A207265637620666F722077AB
S31560020D30726F6E6720706362210000002DE9F041D8
S31560020D4004460E4615461F46002E09D1DFF8DC8999
S31560020D5008F1A8000AF0C4FFF921404617F062FDC7
S31560020D60002C07D12BA00AF0BBFFFA21DFF8BC09E1
S31560020D7017F058FD002C02D16FF0050047E060685D
S31560020D80B04208D02BA00AF0ABFF4FF48071DFF8B7
S31560020D909C0917F047FD04F1100017F002FD0028C8
S31560020DA009D1002D32D02989304618F00FF928462C
S31560020DB00FF0F1FA2AE038000BD0002C09D017F0B8
S31560020DC02CFD94F9081011F10C0F00DB277217F055
S31560020DD026FD002D01D02E8900E00026294604F169
S31560020DE0100017F099FC002802D04FF0FF300EE099
S31560020DF017F013FDA16A8919A16217F010FDA36BA2
S31560020E00002B03D032460021204698470020BDE8D9
S31560020E10F0810000726563765F746370206D75732E
S31560020E2074206861766520616E20617267756D6592
S31560020E306E740000726563765F7463703A207265E1
S31560020E40637620666F722077726F6E672070636258
S31560020E502100000038B5040009D1DFF8B40A0AF0AF
S31560020E603FFF4FF49C71DFF8C40817F0DBFC607833
S31560020E70012804D10121204600F0E5FF05E004289F
S31560020E8003D10121204600F023FB04F12C010A78EC
S31560020E90D00616D56068002813D000F16005288850
S31560020EA041F2030398420CDB68880B2809DA02F0E8
S31560020EB0EF020A70CB68002B03D000220221204683
S31560020EC09847002032BD38B504461546002C09D134
S31560020ED0DFF83C0A0AF004FF40F26111DFF84C08C1
S31560020EE017F0A0FC002C27D06078012804D10121DC
S31560020EF0204600F0A8FF05E0042803D10121204620
S31560020F0000F0E6FA6068002816D000F160021088E8
S31560020F1041F2030188420FDB50880B280CDA04F198
S31560020F202C01087800F0EF000870CB68002B03D024
S31560020F302A46022120469847002032BDF8B504466B
S31560020F400D46002C09D1DFF8C8090AF0C9FE4FF434
S31560020F50C271DFF8D80717F065FC0020606066781A
S31560020F606070042E0ED10546002C10D017F055FC89
S31560020F7094F9081011F10C0F01DB2946217217F062
S31560020F804EFC04E017F049FC257217F048FC04F1A8
S31560020F902C07FB68002B03D00022042120469847C9
S31560020FA0FB68002B03D00022114620469847FB6857
S31560020FB0002B03D0002202212046984704F110003C
S31560020FC017F0EFFB002804D0002104F1100017F09F
S31560020FD0A3FB04F1140017F0E4FB002804D00021FF
S31560020FE004F1140017F098FB012E03D0042E01D0F1
S31560020FF0032E3DD139780846800800F0010001F0E1
S31560021000FB013970002842D1B868002809D1DFF89F
S31560021010E00B0AF065FE40F2B311DFF8100717F035
S3156002102001FCB8680571B868006800F10C063046C4
S3156002103017F0BBFA002808D115A00AF051FE4FF44A
S31560021040DB71DFF8E80617F0EDFB0020B860002CD4
S3156002105009D017F0E2FB94F9081011F10C0F00DBCE
S31560021060257217F0DCFB3046BDE8F24017F06FBA26
S31560021070B86800280BD000BF0CA00AF031FE40F21F
S31560021080BD11DFF8A806BDE8F44017F0CBBBF1BD91
S31560021090696E61766C6964206F705F636F6D706C88
S315600210A0657465645F73656D00000000636F6E6EE4
S315600210B02D3E63757272656E745F6D7367203D3D1A
S315600210C0204E554C4C00000010B501464C68204637
S315600210D018F0F9FBDFF81C1B204618F0F8FBDFF866
S315600210E0181B204618F008FC0222DFF84C1C20462A
S315600210F018F036FCDFF8441C2046BDE8104018F0B4
S315600211000FBCF8B504460D461746002C16D004F1FE
S31560021110140017F046FB002810D0002D11D1DFF81D
S31560021120201C04F1140017F0F7FA002806D1A36B0D
S31560021130002B03D000221146204698476FF0050027
S31560021140F2BDA16B207800F0D2F8060011D1DFF86B
S31560021150F01B04F1140017F0DFFA002806D1A36B26
S31560021160002B03D000221146204698474FF0FF30ED
S31560021170F2BD7560FFF7A8FF3772314604F11400BD
S3156002118017F0CAFA002825D074680021204618F0A4
S315600211909AFB0021204618F09AFB0021204618F09F
S315600211A0ABFB00221146204618F0DAFB00212046EE
S315600211B018F0B6FB0020706006F1100017F078FA9E
S315600211C006F1100017F0F4FA304600F0E8F84FF036
S315600211D0FF30F2BDA36B002B03D0002211462046DE
S315600211E098470020F2BD000010B5044620684068AA
S315600211F0002808D027A00AF073FD4FF40B71DFF8C0
S315600212002C0517F00FFB2068007800F0F00010281C
S315600212102ED0202817D0402837D1217A002012F00C
S31560021220F4F92168486022685068002803D0DFF824
S31560021230141B12F055F920684068002802D14FF05D
S31560021240FF30207110BD00201CF02AFE2168486024
S31560021250216848680028EED00978222901D1012147
S3156002126001742268DFF8E01A50681CF0EFFDE2E7CD
S31560021270002018F026FB216848602168486800282B
S31560021280D9D00846FFF720FFD5E76FF00500207139
S3156002129010BD00007063625F6E65773A20706362AC
S315600212A020616C726561647920616C6C6F636174D4
S315600212B06564000010B5044600202071206840680D
S315600212C0002802D12046FFF78FFF206800280DD044
S315600212D017F0A3FA216891F9082012F10C0F01DBCD
S315600212E022790A72BDE8104017F099BA10BDF8B5B6
S315600212F007460D46DFF8346440F28D2231460620F9
S315600213000BF076FD040001D10020F2BD00202072B0
S315600213102770606007F0F007102F16D0202F01D0DB
S31560021320402F14D1012104F1100017F091F9002821
S3156002133016D1002104F10C0017F0C2F8002815D06E
S3156002134004F1100017F0B4F90AE00A21EBE706F19E
S31560021350CC000AF0C5FC4FF42A71304617F062FAE7
S31560021360214606200BF080FD0020F2BD04F1140038
S3156002137017F01EFA002060704FF0FF30A06104F192
S315600213802C00C560002181604160E16121624FF4F9
S31560021390005161620021A16201702046F2BD38B53A
S315600213A00446606800280AD0DFF8805305F1F4002D
S315600213B00AF096FC4FF43871284617F033FA04F1B6
S315600213C0100017F0EEF900280AD0DFF8605305F531
S315600213D092700AF085FC40F2E221284617F022FA62
S315600213E004F1140017F0DDF900280AD0DFF83C5347
S315600213F005F5B0700AF074FC40F2E521284617F054
S3156002140011FA04F10C0017F08BF804F10C0017F0D6
S31560021410D3F821460620BDE834400BF025BD38B529
S31560021420044604F1100017F0BCF9002802D124E04A
S315600214300CF02CF8694604F1100017F0A7F910F1C8
S31560021440010F12D0207800F0F00010280098EFD13A
S315600214500028EFD005466068002802D0298917F077
S31560021460B5FD28460EF097FFE4E704F1100017F089
S315600214701FF904F1100017F09BF904F1140017F03C
S3156002148090F9002813D131BD0099DFF8B408814282
S315600214900DD00D462846FFF7C2FF6868002803D0C4
S315600214A017F084FC002068602846FFF778FF6946DB
S315600214B004F1140017F06AF910F1010FE4D104F196
S315600214C0140017F0F5F804F1140017F071F931BD44
S315600214D02DE9F34F81B006464FF0000ADFF84C82E1
S315600214E0002E08D10FF24C200AF0FAFB40F243318B
S315600214F0404617F097F9307800F0F000102808D0CF
S315600215000FF240200AF0ECFB4FF45171404617F09F
S3156002151089F97078042808D008F5CE700AF0E0FBE5
S3156002152040F24531404617F07DF97068002808D1CF
S315600215300FF230200AF0D4FB40F24631404617F0F3
S3156002154071F9706B002808D1DFF8A4060AF0C8FBAF
S3156002155040F24731404617F065F9D6F80490706B51
S31560021560007A00F00101009100F0020503280AD01A
S315600215700846002809D099F81400052803D00628E1
S3156002158001D0082801D1012408E0002D05D099F880
S315600215901A40240904F0010400E05446002C03D0EA
S315600215A05146484618F08FF999F81400012804D17B
S315600215B05146484618F0CCF91BE00098002807D03F
S315600215C05146484618F083F95146484618F0C0F924
S315600215D0002D03D05146484618F08EF9002C08D0EB
S315600215E052461146484618F0BBF95146484618F02D
S315600215F097F9002C04D0484617F02CFB074605E005
S315600216002A460099484617F02EFB074638001AD03C
S3156002161039464FF0FF30814215D144F6206BF069AE
S31560021620002800DD834617F013F9716BC968401A0A
S3156002163058450ADB4FF0010A002C06D0484617F0DF
S31560021640B5FB002701E04FF0010ABAF1000F3CD06A
S31560021650706B016801F10C0807710020706370708D
S3156002166038001DD1002C08D000207060B36B002BAF
S3156002167003D002460421304698470098002806D0D7
S31560021680B36B002B03D00022114630469847002DDB
S3156002169006D0B36B002B03D0002202213046984756
S315600216A0002E09D017F0B9F896F9081011F10C0F4F
S315600216B000DB377217F0B3F89DF80800002802D0F5
S315600216C0404616F044FF00202DE099F814000128E8
S315600216D008D108F5E0700AF003FB40F2E3314046B8
S315600216E017F0A0F8002D04D0DFF80C15484618F064
S315600216F003F90122DFF84016484618F031F9DFF89F
S315600217003C16484618F00CF93146484618F0DBF8A4
S31560021710380007D118A00AF0E3FA40F2EF314046EA
S3156002172017F080F83846BDE8FE8F000058F80110C1
S31560021730108D0210696E76616C696420636F6E6EDD
S31560021740000000007468697320697320666F7220F6
S31560021750746370206E6574636F6E6E73206F6E6CE9
S315600217607900000070636220616C72656164792041
S31560021770636C6F736564000065727220213D20455B
S3156002178052525F4F4B00000038B5054628684478D0
S31560021790002C0ED0007800F0F000102809D000BFAF
S315600217A05CA00AF09DFA40F20141DFF8DC0B17F00B
S315600217B039F8002C03D0022C01D0032C06D1032C5D
S315600217C008D1286890F82C00400703D46FF0040013
S315600217D0287135E0032C0ED1286890F82C0040075A
S315600217E009D400BF50A00AF07BFA40F21F41DFF82D
S315600217F0980B17F017F8002028712868FFF70FFE7C
S315600218002968486800280DD00A7802F0F002102A8A
S3156002181035D0202A2CD0402A01D111F0CAFE0021EF
S31560021820286841602868836B002B02D0002211462B
S3156002183098472868836B002B02D0002202219847C2
S3156002184028680C3016F0B1FE002810D028680028EF
S315600218500DD016F0E2FF296891F9082012F10C0FFB
S3156002186001DB2A790A72BDE8324016F0D8BF31BD73
S3156002187000214162286840681CF0EBFACFE7486BAA
S31560021880002802D1086B002809D00FF600300AF052
S3156002189027FA40F23541DFF8F00A16F0C3FF04205A
S315600218A029684870032028722868456300212868E1
S315600218B0FFF70EFE0028DAD028684078042809D09F
S315600218C00FF6E4200AF00CFA40F23B41DFF8B80A60
S315600218D016F0A8FFDFF8984B204616F0B5FE0021F9
S315600218E028680C3016F036FE204616F094FE2868FC
S315600218F040780028BBD00FF6B0200AF0F1F940F22A
S315600219003F41DFF8840ABDE8344016F08BBF000021
S31560021910802400106E6574636F6E6E2073746174DA
S3156002192065206572726F7200626C6F636B696E6757
S3156002193020636F6E6E65637420696E2070726F6766
S31560021940726573730000000038B50446206890F92A
S3156002195008106FF00B050846A84201DA21711FE0F4
S315600219606FF00500207121684868002818D0097850
S3156002197001F0F00110290ED0202906D040290FD19E
S31560021980A16811F097FD20710AE0A289A1681CF096
S31560021990E7F9207104E0A289A16817F009FA2071BB
S315600219A0206800280CD016F038FF216891F90820CB
S315600219B0AA4201DB22790A72BDE8324016F02FBFD5
S315600219C031BD2DE9F041054614460026002D02D1AF
S315600219D06FF005006AE06878032809D00FF6CC201C
S315600219E00AF07EF94FF49361DFF89C0916F01AFF4C
S315600219F005F12C07B86800280DD1387840070AD45B
S31560021A00DFF8848908F5F2700AF06AF940F29A41C1
S31560021A10404616F007FFB868002804D00471B8681B
S31560021A20006800F10C06287800F0F000102804D156
S31560021A30002C02D12846FFF747FB38780446A408F3
S31560021A4004F0010484F0010400F0FB003870002CFD
S31560021A5001D0002E0DD1002C01D1002E09D00FF637
S31560021A606C200AF03DF940F2A741DFF81C0916F036
S31560021A70D9FE0020B8606870002D0AD016F0CDFE3F
S31560021A8095F9081011F10C0F01DB0021297216F08D
S31560021A90C6FEFB68002B03D0002202212846984727
S31560021AA0002C02D0304616F052FD0020BDE8F081CF
S31560021AB038B5044621684868002803D16FF00E00E5
S31560021AC0207183E00A7802F0F002102A0ED0202AF2
S31560021AD006D0402A6DD1A16811F0F7FC207175E03D
S31560021AE0A289A1681CF07DF920716FE0487803280D
S31560021AF003D16FF00800207168E0002803D06FF010
S31560021B000900207162E00846FFF7DEFADFF8643901
S31560021B10A289A1682068406817F0CAFA2071002875
S31560021B2054D1206890F82C10490801F00101032273
S31560021B304270206890F82C300A0004D043F0040307
S31560021B4080F82C3003E003F0FB0380F82C3003D0DE
S31560021B506FF00400207139E02068446320684078A1
S31560021B60032809D00FF640000AF0BAF840F2E541C0
S31560021B70DFF8140816F056FEDFF8F458284616F019
S31560021B8063FD002120680C3016F0E4FC284616F04E
S31560021B9042FD20684078032829D10FF60C000AF02E
S31560021BA09FF840F2E941DFF8E007BDE8344016F0FD
S31560021BB039BE0FF638100AF093F840F2F241DFF8B8
S31560021BC0C80716F02FFE6FF0050020712068002806
S31560021BD00DD016F022FE216891F9082012F10C0F41
S31560021BE001DB22790A72BDE8324016F018BE31BDB9
S31560021BF0902400103D0D0010C70E001010B504466B
S31560021C002168087800F0F000202805D148681CF0A9
S31560021C1015F90020207102E06FF00500207120683E
S31560021C2000280DD016F0F9FD216891F9082012F10D
S31560021C300C0F01DB22790A72BDE8104016F0EFBD87
S31560021C4010BD7CB50646306890F908106FF00B053A
S31560021C500846A84201DA31715EE06FF00A0030711F
S31560021C6032685068002857D0117801F0F0011029C7
S31560021C704FD15178002947D1017D002903D06FF0F9
S31560021C800500307148E06A46FF2117F000F904004A
S31560021C9003D19DF8000030713EE03068103016F0D6
S31560021CA080FD002807D03068103016F001FD3068DC
S31560021CB0103016F07DFD002030713068143016F059
S31560021CC070FD002805D10A213068143016F0C0FC78
S31560021CD0307196F9040000280FD1022031684870ED
S31560021CE0306844603168486817F0EDFDDFF88817A0
S31560021CF03068406817F02CFE0EE0204616F0AAFF08
S31560021D0000213068416007E0022905D10020307168
S31560021D1002E06FF00F003071306800280AD016F0CA
S31560021D207CFD316891F90820AA4201DB32790A7298
S31560021D3016F075FD73BD0000550E00103D0F0010C4
S31560021D40D42C0310690B00101D0C001070B50546EB
S31560021D50286890F908106FF00B040846A04201DA71
S31560021D6029712FE06FF00A002871296848680028F7
S31560021D7028D0097801F0F001202914D0402921D118
S31560021D80AB6813F1080102D09968002904D1196879
S31560021D9011F00DFC287115E003F10802196811F0C3
S31560021DA0A2FB28710EE0AE683168B268002A03D1E0
S31560021DB01BF0F9FE287105E0B38906F108021BF0F3
S31560021DC0F9FE2871286800280CD016F026FD2968CD
S31560021DD091F90820A24201DB2A790A72BDE87040B5
S31560021DE016F01DBD70BD70B50546002028712968C4
S31560021DF04868002815D0087800F0F000102810D145
S31560021E00AC68B4F5803F02D34FF6FF7600E0264613
S31560021E10314689B22868406817F0D8F8B6B2A41B72
S31560021E20EFD1286800280DD016F0F7FC296891F9E1
S31560021E30082012F10C0F01DB2A790A72BDE87040A4
S31560021E4016F0EDBC70BD2DE9F84F05468A460027AF
S31560021E50DFF834B5002D08D10FF2246009F040FF97
S31560021E6040F2E351584616F0DDFC6878012808D046
S31560021E700FF2906009F034FF40F2E451584616F0D2
S31560021E80D1FC05F12C06B068002808D10FF200607B
S31560021E9009F026FF40F2E551584616F0C3FC686821
S31560021EA0002808D10FF27C6009F01AFF40F2E65171
S31560021EB0584616F0B7FC7068B168C968884208D39C
S31560021EC00BF5097009F00CFF4FF4BD61584616F028
S31560021ED0A9FCB06890F810803078400800F00100E4
S31560021EE04446A41004F001040443E869002816D0AD
S31560021EF016F0AEFCB2685169401AE96988420EDB97
S31560021F0001277068002804D16FF006080020D060AF
S31560021F10ADE04FF00008D06040467060A7E07068A0
S31560021F20B1688A6802440092C968A1EB0009B9F5F2
S31560021F30803F03D34FF6FF7948F002086A68B2F829
S31560021F4060C062464B469BB29A4209D2E146002C79
S31560021F5004D0002A04D16FF006081DE048F002089A
S31560021F6010FA89F0814208D20BF5167009F0B8FEB4
S31560021F7040F21361584616F055FC43464A4692B201
S31560021F800099686819F026FB8046002804D041460D
S31560021F904FF0FF30814227D1002C12D0484680B2E2
S31560021FA0B168C96888420CD2F368002B04D04A46ED
S31560021FB092B2032128469847307840F0100030707C
S31560021FC012E0686800F16002108841F203018842FB
S31560021FD002DB50880B2807DBF368002B04D04A46E5
S31560021FE092B2032128469847404600281CD1706861
S31560021FF010FA89F07060B268D168884201D0002C0C
S3156002200001D0D0600127686819F07FFE014611F1A0
S315600220100C0F03DB6FF00302914228D18046012741
S315600220200021B068C16022E04FF0FF3188421AD1C8
S31560022030686819F06AFE014611F10C0F04DB02466C
S315600220406FF003018A4205D1804601270021B068FC
S31560022050C1600CE0002C0AD06FF006080127002050
S31560022060B168C86003E001270020B168C860002F2C
S315600220701ED0B068016801F10C0480F8048000206B
S31560022080B06070606870002D0AD016F0C6FB95F9D4
S31560022090081011F10C0F01DB85F8088016F0BFFB02
S315600220A0BAF1000F02D0204616F051FA002001E084
S315600220B04FF0FF30BDE8F28F38B50446216891F9DA
S315600220C008206FF00B051046A84201DA227166E01D
S315600220D0087800F0F00010285ED14878002803D016
S315600220E06FF0040020715AE04868002850D0012041
S315600220F048702168486B002802D1086B002808D016
S315600221000FF2882009F0ECFD40F283619E4816F0DA
S3156002211089FBE068002808D10FF2204009F0E0FD53
S3156002212040F28461984816F07DFB20684463002083
S315600221302168086301462068FFF785FE00283ED0C5
S3156002214020684078012808D00FF25C2009F0C8FDAB
S3156002215040F289618C4816F065FBDFF81453284615
S3156002216016F072FA002120680C3016F0F3F9284650
S3156002217016F051FA20684078012820D18AA009F029
S31560022180AFFD40F28D618048BDE8344016F04ABB2F
S315600221906FF00A00207102E06FF0050020710846B8
S315600221A000280CD016F039FB216891F90820AA4262
S315600221B001DB22790A72BDE8324016F030BB31BDCE
S315600221C010B5044620684068002852D0A268217C77
S315600221D0002902D00068106001E0406810600020AB
S315600221E020712168087800F0F000102822D020289B
S315600221F00DD0402833D1207C002804D04868017C69
S31560022200E068018038E06FF00A00207134E04968C6
S31560022210207C002803D0498AE06801802CE0087C93
S31560022220400703D46FF00A00207125E0888AE168CE
S31560022230088021E04A68207C002808D1117D0029A7
S3156002224001D0012903D16FF00A00207114E0002841
S3156002225001D0D08A00E0108BE16808800CE00FF2B2
S31560022260F02009F03DFD40F2DD61474816F0DAFAEA
S3156002227002E06FF00A002071206800280DD016F087
S31560022280CCFA216891F9082012F10C0F01DB227950
S315600222900A72BDE8104016F0C2BA10BD38B50446DF
S315600222A021684A784868002858D0087800F0F0001B
S315600222B0102853D1207A032801D0022A4ED0032A4D
S315600222C04CD0012A03D16FF00400207149E0C007A7
S315600222D002D50846FFF7A3F82168486B002802D1A9
S315600222E0086B002808D000BF28A009F0F9FC40F26C
S315600222F01C71254816F096FA0420216848702068F9
S31560022300446300212068FFF7E3F800283AD020688A
S315600223104078042808D000BF23A009F0E1FC40F20F
S315600223202171194816F07EFA514D284616F08CF93D
S31560022330002120680C3016F00DF9284616F06BF96C
S315600223402068407800281DD017A009F0C9FC40F229
S3156002235025710D48BDE8344016F064BA6FF00A0084
S315600223602071084600280DD016F057FA216891F9B7
S31560022370082012F10C0F01DB22790A72BDE83240A5
S3156002238016F04DBA31BD000058F80110616C7265E5
S315600223906164792077726974696E67206F722063EF
S315600223A06C6F73696E6700007374617465210000F7
S315600223B038B50446216891F908206FF00B0510467E
S315600223C0A84201DA22711BE04868002815D0087815
S315600223D000F0F00020280CD1E068A168227C002A77
S315600223E003D106F0EDFF20710AE007F08DF8207147
S315600223F006E06FF00500207102E06FF00A002071BE
S31560022400206800280CD016F008FA216891F9082095
S31560022410AA4201DB22790A72BDE8324016F0FFB9A0
S3156002242031BDD068002903D16FF00501017004E067
S3156002243000230370096850680160906816F087B8D7
S315600224401CB504460020009023460C4A6168206849
S3156002245002F010FAE1680870E06890F9000010F185
S31560022460050F04D0A068BDE8164016F070B813BD1B
S31560022470B02B0310C319001003110010232400109F
S31560022480636F6E6E20213D204E554C4C000000005D
S31560022490636F6E6E2D3E63757272656E745F6D7379
S315600224A06720213D204E554C4C000000636F6E6ED6
S315600224B02D3E7374617465203D3D204E4554434FF5
S315600224C04E4E5F434F4E4E4543540000626C6F63FF
S315600224D06B696E6720636F6E6E6563742073746179
S315600224E07465206572726F7200000000496E7661D3
S315600224F06C6964206E6574636F6E6E207479706544
S3156002250000000000636F6E6E2D3E73746174652009
S315600225103D3D204E4554434F4E4E5F5752495445BA
S3156002252000000000636F6E6E2D3E7063622E7463F0
S315600225307020213D204E554C4C0000006D73672D76
S315600225403E6D73672E772E6C656E20213D203000BE
S31560022550696E76616C6964206E6574636F6E6E5FB8
S3156002256074797065000000002DE9D04348431E4926
S315600225700A6842F21071B2FBF1F21C49B1FBF2F247
S315600225804FF47A740021A4FB006714FB0177DFE93C
S3156002259018894F450DD801D346450AD242F21074C6
S315600225A0A4FB060114FB071143461BF0F6EE8008F6
S315600225B013E09200B0FBF2F242F2107042430B4615
S315600225C0A4FB020114FB03111A464B46994202D838
S315600225D003D3904201D34FF0FF30002802D0BDE80A
S315600225E0D04309E0BDE8D0839836100000CA9A3B12
S315600225F0000000000100000000F000B80138002869
S31560022600FCD17047704700001A491B480160704749
S3156002261081B01A4BC0F3044200F480018A1803EBBE
S315600226208201012200F01F0002FA00F000900A689F
S31560022630009802430A600868009001B0704781B052
S315600226400E4BC0F3044200F480018A1803EB820148
S31560022650012200F01F0002FA00F000900A6800985A
S3156002266082430A60086800900868009008680090D3
S3156002267001B0704701A521431002288140022880DB
S315600226800F481CF053BA000010B509F005F900288E
S3156002269005D158220FF2540119A009F085FA074CA8
S315600226A02068002800D080470121201D1CF046FAD0
S315600226B012F089F8BDE810401AF068BF285B021074
S315600226C02C5B0210002802D54FF0FF3070474FF4A2
S315600226D07A72114690FBF1F15143401A504300F26F
S315600226E0E73090FBF2F040187047000072745F7436
S315600226F069636B5F696E6372656173650000000092
S3156002270072745F696E746572727570745F67657490
S315600227105F6E6573742829203E203000DFF800F072
S31560022720243A0010DFF800F0303A00100168814266
S3156002273001D10120704700207047014600200A46F9
S3156002274000E0401C12688A42FBD17047FFF7E6BF81
S315600227500846FFF7E7BF80B50FF6BC1009F0C0FA6E
S31560022760002002BD80B509F0FAF8002002BD10B55E
S31560022770044602E0B7A009F0B3FA2046441E0028D8
S31560022780F8D110BDF8B504460D4616461F462846D2
S315600227900DF0D2F9001D206025726660E7600020A8
S315600227A02061F1BDF8B504460E4600252846306123
S315600227B0F068002802D0307A002801D12846F2BD9E
S315600227C03768002C01D13C46012507F10C00FFF762
S315600227D0BDFF0146002D0CD114F8042C22F08002B4
S315600227E0307A824205D007F10C00FFF7B1FF002074
S315600227F0F2BD002572682468BC4206D06D1C42F8A0
S31560022800044BF0688542F6D100E0002407F10C0023
S31560022810FFF79EFF35612046F2BD2DE9F047BAB05B
S315600228200024082308AA012103A8FFF7ABFF039837
S31560022830051FDFF880680FF69C03102211463046AA
S3156002284009F04EFA1020FFF792FF06F1500009F0E8
S3156002285047FAB5A009F044FA0A20FFF788FFB3A049
S3156002286009F03EFA03A92046FFF79CFF04460027BB
S3156002287024E00AF1010A9AF800002328F9D0D8F870
S31560022880300009F045F8D8F82810D8F82C20CDF891
S3156002289008800190D9F808000090A2EB0A0A8A44DF
S315600228A0642000FB0AFABAFBF2F38918D8F81C0016
S315600228B0091A06F1900009F013FA7F1C07988742FD
S315600228C057DA08A850F82700A0F1140805F110009D
S315600228D0FFF73CFF814698F8101021F080019DF8C1
S315600228E01400814205D0494605F11000FFF730FF1A
S315600228F0E3E7A822414610A81CF08AF9494605F189
S315600229001000FFF725FF08F13C0999F80C000090CA
S315600229104346102211460FF6080009F0E1F999F8CC
S31560022920000000F00700022804D10FF6000009F04B
S31560022930D7F91AE0410704D50FF2FC7009F0D0F915
S3156002294013E0002804D10FF2FC7009F0C9F90CE01B
S31560022950012804D10FF2F87009F0C2F905E00328E4
S3156002296003D10FF2F87009F0BBF9D8F82800824655
S3156002297081E7002C7FF476AF00203AB0BDE8F0879D
S31560022980F0B58FB00024082307AA022102A8FFF738
S31560022990F9FE0298051F0FF2D073102211460FF24C
S315600229A0D47009F09DF91020FFF7E1FE0FF2E07096
S315600229B009F096F902A92046FFF7F4FE04460027BD
S315600229C02AE0FFF7BAFE0190B08C009033461022DF
S315600229D011460FF2E47009F083F91CE0FFF7B8FEC6
S315600229E006F11C00FFF7A2FE002806F11C00E8D1E2
S315600229F0FFF7A3FE0190B08C009033461022114679
S31560022A000FF2A47009F06CF906F11C0007F00EFCD7
S31560022A1046A009F065F97F1C0698874215DA07A871
S31560022A2050F82700A0F1140605F11000FFF78EFE9C
S31560022A300146327C22F080029DF81000824205F146
S31560022A401000CBD0FFF784FEE5E7002CB2D1002060
S31560022A500FB0F0BD2D000000F0B58FB00024082342
S31560022A6007AA042102A8FFF78DFE0298051F0FF23E
S31560022A70746310221146DFF8400609F031F910201E
S31560022A80FFF775FE0FF2407009F02AF902A9204697
S31560022A90FFF788FE0446002727E0706A00903346F7
S31560022AA0102211460FF2587009F01AF91CE0FFF76E
S31560022AB04FFE06F11C00FFF739FE0028EDD106F144
S31560022AC01C00FFF73AFE0190706A009033461022AE
S31560022AD011460FF2147009F003F906F11C0007F0B3
S31560022AE0A5FB12A009F0FCF87F1C0698874215DA4E
S31560022AF007A850F82700A0F1140605F11000FFF7A9
S31560022B0025FE0146327C22F080029DF81000824248
S31560022B1005F11000CBD0FFF71BFEE5E7002CB5D11F
S31560022B2000200FB0F0BD0000200000000A00000087
S31560022B302DE9F04192B0002408230AAA032105A8D0
S31560022B40FFF720FE0598061FDFF870550FF29C53BB
S31560022B5010221146284609F0C3F81020FFF707FE37
S31560022B6005F1300009F0BCF805A92046FFF71AFE08
S31560022B7004464FF0000837E0FFF7DFFD0490687DFA
S31560022B800390A87D0290A8690190102000903B46B0
S31560022B90024601460FF29C6009F0A2F822E0FFF7B6
S31560022BA0D7FD07F11C00FFF7C1FD002807F11C00E5
S31560022BB0E2D1FFF7C2FD0490687D0390A87D029082
S31560022BC0A8690190102000903B46024601460FF22A
S31560022BD0446009F085F807F11C0007F027FBB3A0F3
S31560022BE009F07EF808F101080998804517DA0AA803
S31560022BF050F82800A0F1140706F11000FFF7A6FDB1
S31560022C00014607F110052A7822F080029DF81C0021
S31560022C10824206F11000C2D0FFF79AFDE2E7002C6D
S31560022C20A2D1002012B0BDE8F081F8B590B00024C0
S31560022C30082308AA052103A8FFF7A4FD0398051F28
S31560022C400FF2B04310221146DFF8740409F048F817
S31560022C501020FFF78CFD0FF2FC5009F041F803A932
S31560022C602046FFF79FFD044600272EE0FFF765FD2D
S31560022C700290308D0190708D00903346102211467D
S31560022C800FF2046009F02CF81EE0FFF761FD06F111
S31560022C901C00FFF74BFD002806F11C00E6D1FFF78A
S31560022CA04CFD0290308D0190708D0090334610225B
S31560022CB011460FF2BC5009F013F806F11C0007F03A
S31560022CC0B5FA7AA009F00CF87F1C0798874215DAE4
S31560022CD008A850F82700A0F1140605F11000FFF7C6
S31560022CE035FD0146327C22F080029DF81400824254
S31560022CF005F11000C9D0FFF72BFDE5E7002CAED138
S31560022D00002011B0F0BDF0B58FB00024082307AAE9
S31560022D10062102A8FFF736FD0298051F0FF2DC3383
S31560022D20102211460FF2785008F0DAFF1020FFF7F2
S31560022D301EFD0FF28C5008F0D3FF02A92046FFF762
S31560022D4031FD044600272AE0FFF7F7FC0190B08DBB
S31560022D5000903346102211460FF2905008F0C0FFE1
S31560022D601CE0FFF7F5FC06F11C00FFF7DFFC00280C
S31560022D7006F11C00E8D1FFF7E0FC0190B08D0090EF
S31560022D803346102211460FF2505008F0A9FF06F1A1
S31560022D901C0007F04BFA45A008F0A2FF7F1C0698BC
S31560022DA0874215DA07A850F82700A0F1140605F144
S31560022DB01000FFF7CBFC0146327C22F080029DF8C0
S31560022DC01000824205F11000CBD0FFF7C1FCE5E7A7
S31560022DD0002CB2D100200FB0F0BDF0B591B0002446
S31560022DE0082309AA194604A8FFF7CCFC0498051F14
S31560022DF0B44E0FF2143310221146304608F070FFBB
S31560022E001020FFF7B4FC06F1280008F069FF04A958
S31560022E102046FFF7C7FC0446002622E01022114630
S31560022E200FF2F84008F05CFF1AE0521C0968814212
S31560022E30FBD1786AF96A3B6B002A0392029301918D
S31560022E4000903B46EADD102211460FF2B44008F0CC
S31560022E5047FF07F1340007F0E9F914A008F040FFD4
S31560022E60761C089886421CDA09A850F82600A0F15A
S31560022E70140705F11000FFF769FC01463A7C22F05F
S31560022E8080029DF81800824205F1100002D0FFF719
S31560022E905FFCE5E7FFF75CFC0022796B07F1340023
S31560022EA0C5E7002CB3D1002011B0F0BD0A000000C6
S31560022EB0F0B58FB00024082307AA0A2102A8FFF7FB
S31560022EC061FC0298051F804E84A31022114630468B
S31560022ED008F006FF1020FFF74AFC06F1340008F0FE
S31560022EE0FFFE02A92046FFF75DFC0446002710E0BC
S31560022EF00FF2884008F0F4FE0AE00FF2644008F030
S31560022F00EFFE707C4007F3D50FF2644008F0E8FEEE
S31560022F107F1C069887422ADA07A850F82700A0F194
S31560022F20140605F11000FFF711FC0146327C22F00F
S31560022F3080029DF81000824205F1100002D0FFF770
S31560022F4007FCE5E7FFF704FC306B0190F06A00903E
S31560022F503346102211460FF2E03008F0C1FE707C53
S31560022F60C007CAD50FF2E83008F0BAFEC9E7002CEE
S31560022F70B7D1FFF785FB01460FF20C4008F0B0FEB1
S31560022F8000200FB0F0BD00002DE9F8418FB000249B
S31560022F90082307AA092102A8FFF7F4FB0298061F75
S31560022FA0DFF828515AA31022114605F17C0008F079
S31560022FB097FE1020FFF7DBFB05F1A40008F090FEF8
S31560022FC002A92046FFF7EEFB04464FF000082EE00A
S31560022FD0FFF7BEFB0FF2C831387F1F2804DA55F8B7
S31560022FE02000002800D0014697F822000190009147
S31560022FF03B46102211460FF2B03008F071FE14E023
S3156002300007A850F82800A0F1140706F11000FFF790
S315600230109DFB01463A7C22F080029DF810008242B6
S3156002302006F11000D4D0FFF793FB08F10108069869
S315600230308045E5DB002CC3D1002010B0BDE8F081ED
S3156002304010B5234C022829D1224602200AF093F9B0
S31560023050401E092822D8DFE800F0050B110E14176E
S31560023060211A1D08FFF7D9FB16E0FFF721FF13E0CF
S31560023070FFF786FC10E0FFF7EFFC0DE0FFF758FD67
S315600230800AE0FFF7D2FD07E0FFF73DFE04E0FFF737
S31560023090A4FE01E0FFF778FF002010BDC7A008F08C
S315600230A01FFE00BFCBA008F01BFE20460AF07AF98D
S315600230B0002010BDA4FE011060FF011084FF011004
S315600230C0DCFF0110000002104C000210B00002107A
S315600230D06CEF0110746872656164000074696D65F5
S315600230E0720000006576656E740000006D75746529
S315600230F0780000006D61696C626F78006D7367714C
S3156002310075657565000000006D656D706F6F6C00AA
S3156002311064657669636500001B5B324A1B5B480027
S31560023120252D2A2E2A73202533642000207265619C
S3156002313064792020000000002073757370656E64E8
S315600231400000000020696E697420202000000000E3
S3156002315020636C6F73652020000000002072756E1C
S315600231606E696E670000000073656D6170686F72EC
S3156002317065000000252D2A2E2A73207620202073D2
S31560023180757370656E64207468726561640A0000A6
S31560023190202D2D2D202D2D2D2D2D2D2D2D2D2D2D11
S315600231A02D2D2D0A00000000252D2A2E2A7320259A
S315600231B03033642025643A00252D2A2E2A73202571
S315600231C03033642025640A0020202D2D2D2D2D2DCF
S315600231D02D2D2D2D202D2D2D2D2D2D2D2D2D2D2DC4
S315600231E02D2D2D0A00000000252D2A2E2A7320205F
S315600231F030782530387820253033643A0000000074
S31560023200252D2A2E2A7320203078253038782030D2
S315600232100A000000252D2A2E2A7320252D382E2AF3
S3156002322073202530346420253864202025303464A8
S3156002323020000000252D2A2E2A7320252D382E2ABD
S315600232407320253034642025386420202530346488
S315600232500A000000202D2D2D2D20202D2D2D2D2014
S315600232602D2D2D2D2D2D2D2D2D2D2D2D2D2D0A0076
S31560023270252D2A2E2A7320253034642020253034C9
S31560023280642025643A000000252D2A2E2A73202503
S315600232903034642020253034642025640A0000001E
S315600232A0252D2A2E2A7320656E74727920737573A2
S315600232B070656E64207468726561640A000000005D
S315600232C0202D2D2D2D20202D2D2D2D2D2D2D2D2DED
S315600232D02D2D2D2D2D0A0000252D2A2E2A7320250F
S315600232E0303464202025643A00000000252D2A2E01
S315600232F02A732025303464202025640A00000000E9
S31560023300252D2A2E2A732025303464202025303438
S31560023310642020253034642025643A00252D2A2E27
S315600233202A732025303464202025303464202025F9
S315600233303034642025640A00252D2A2E2A73203013
S3156002334078253038782030782530387820000000AB
S3156002335061637469766174656420202000000000F0
S315600233606465616374697661746564200000000057
S31560023370706572696F6469630A0000006F6E65202A
S3156002338073686F740A00000063757272656E7420EA
S315600233907469636B3A3078253038780A0000000029
S315600233A0556E6B6E6F776E00252D2A2E2A73202539
S315600233B02D32307320252D38640A000055736167FB
S315600233C0653A206C697374205B6F7074696F6E7393
S315600233D05D0A00005B6F7074696F6E735D3A0A0016
S315600233E038B514461D4641F2F802904201D00B20D0
S315600233F032BD0498002801D0052032BD002901D0D3
S31560023400112032BD092C01D30F2032BD00F007F81E
S315600234102246B64928461BF058E8002032BD10B550
S31560023420B3480168B14CB3480078002812D0D1F88D
S315600234301009D4E9002322F0FF320243C4E90023D3
S31560023440A168884204D2121E63F1FF33C4E90023E5
S31560023450A06005E0082201F5116120461BF034E800
S315600234600020E06010BDA44800687047A349488DFB
S31560023470002808D1A2480289088D82428041C00F85
S3156002348081F8400002E0012081F840009D49488DA4
S31560023490002808D19A480289088D82428041C00F6D
S315600234A081F840007047012081F84000704780B57E
S315600234B092482021018000214180416044F21F012F
S315600234C08181914901610022426182830262826244
S315600234D080F840208B4A2023138000235380536058
S315600234E08089908111611846506190831062906262
S315600234F082F8400001468548017000F0A0F8002875
S3156002350001D000F07FF800208149087001468148A9
S3156002351001700846804908808049087080490860C1
S3156002352080490860014680480160804801607048B1
S3156002353000686E496F4A037A1B0702D50020107035
S3156002354004E001231370D0F8100988604FF47A60A2
S31560023550C86001BD10B4002833D0674A11680029DB
S3156002356006D110600021416008461168086029E0B2
S3156002357004890B899C420CD200210160116841606A
S3156002358011680860106000201CE04A68002A12D0A8
S315600235901146002915D023460A899A4211D09342D0
S315600235A0F3D20A68026041600A68002A00D050605D
S315600235B00860002006E0486001600021416008461C
S315600235C000E0012010BC704730B44B4B19680446CA
S315600235D000E01146002913D04A680D89A542F8D148
S315600235E00868002800D04260002A00D010600020DF
S315600235F008604860088919680989884200D11A609A
S3156002360030BC704738B53C4D2C6803E0208964684D
S31560023610FFF7DAFF002CF9D10020286031BD10B522
S315600236200446002000E0283422894FF6FF718A4260
S3156002363004D02046FFF78EFF0100F4D010BD10B50E
S315600236402D4C0020206004F5B670FFF7E8FF0100FC
S3156002365003D1201DBDE81040E1E710BD2DE9F84F0A
S3156002366031480468002C3ED02B4D2C4E2C4FDFF88F
S31560023670B480DFF8A09099F800000090D8F8003086
S315600236803A6831782888A0478246FF282BD0204C9A
S315600236902078401E03281AD8DFE800F00D021313C3
S315600236A0DFF888B0DBF80000002804D01BF06BFB63
S315600236B00020CBF8000000221146504611F088FE29
S315600236C005E0D8F800203968504611F081FE0020E6
S315600236D02070288030703860C8F8000089F80000D1
S315600236E0014611480160BDE8F18F0000685602107C
S315600236F000260310DA2C0310E4EF0110FC240310F9
S31560023700C4F401104025031020A10700DD2C03102C
S31560023710F8270310F927031002280310FA2703106B
S31560023720082803100C28031010280310142803100D
S31560023730FEF7F4BF0846FEF7F5BF000010B50400B9
S3156002374005D125220FF298116AA008F02DFA002001
S31560023750206010BD2DE9F341040006D15FF04102FD
S315600237600FF2A81163A008F01FFA0198002829D069
S3156002377011F09FFA002809D064A52946524808F03C
S31560023780AFFA442229464FA008F00EFA19F089F8DA
S31560023790002809D15DA529464C4808F0A1FA4422C1
S315600237A0294648A008F000FA08F076F8002809D001
S315600237B056A52946464808F093FA4422294641A06E
S315600237C008F0F2F9002519F06CF88046414E304651
S315600237D0FFF7AEFF07462068C10740D430F001000C
S315600237E004D04D2249A13C4808F0DEF90198002830
S315600237F002D16FF0910534E02846C8F83000022104
S31560023800404619F07FFA050029D128F001002060B0
S3156002381008F042F8002809D03CA529462C4808F051
S315600238205FFA6122294627A008F0BEF901980028AE
S3156002383009DD01AA002108F1500019F039FE08F1EC
S31560023840500019F0B2FD39463046FFF773FF11F0AA
S31560023850F4F8D8F830503046FFF76AFF0746002082
S31560023860206039463046FFF765FF2846BDE8F68197
S31560023870F8B5040005D18E220FF2A4011DA008F04E
S3156002388093F9144D2846FFF753FF06462068C10791
S3156002389006D531462846FFF74DFF6FF03300F2BD7D
S315600238A030F0010003D019F031FA074601E06FF0FB
S315600238B060070120206031462846FFF73BFF384605
S315600238C0F2BD000030000000200802104C08021011
S315600238D084080210A05B0210AC080210C8E7000060
S315600238E072745F636F6D706C6574696F6E5F696EBB
S315600238F069740000636F6D706C6574696F6E202108
S315600239003D2052545F4E554C4C00000072745F630A
S315600239106F6D706C6574696F6E5F77616974000054
S315600239205F636F6D706C6574696F6E5F646F6E6591
S31560023930000000000020704700207047002070479A
S315600239400020704710B51D4C02E054F8040B804706
S315600239501B488442F9D310BD10B5194C02E054F8E5
S31560023960040B804717488442F9D310BD80B51BF01B
S315600239700CFA00F02BF8002002BD80B5FFF7ECFFD1
S31560023980BDE801401BF0DFB91CB5142001900A2086
S3156002399000904FF400630022DFF82C101BA019F090
S315600239A004F8040005D1D8220FF24C0119A008F0E0
S315600239B0FBF82046BDE8164018F077BF5CF203605C
S315600239C060F203607CF203607B39001080B500F020
S315600239D02AE801F0BDF807F0C2FF19F04AFE11F0BD
S315600239E009F8FFF7D1FF19F065FE05F0CFFB11F07C
S315600239F012F8002002BD000072745F6170706C691B
S31560023A00636174696F6E5F696E6974006D61696E18
S31560023A100000000074696420213D2052545F4E55B7
S31560023A204C4C000000000FE180000CF11EFF2FE1FC
S31560023A3000F021E11EFF2FE100402DE9FF5F2DE935
S31560023A4000400FE101001EE3000054E3FFFFFF1A8E
S31560023A50204084E310002DE900D080E500D091E596
S31560023A601000BDE804F06FE1FFDFFDE80FE0A0E1C2
S31560023A700040ADE800D090E51000BDE804F06FE1CB
S31560023A80FFDFFDE8B0209FE5003092E5010053E3D9
S31560023A900300000A0130A0E3003082E59C209FE526
S31560023AA0000082E598209FE5001082E51EFF2FE167
S31560023AB0FF5F2DE9671F00FA816700FA6D1F00FA42
S31560023AC074009FE5001090E5010051E30100000AD1
S31560023AD0FF5FBDE804F05EE20010A0E3001080E53F
S31560023AE0FF5FBDE80F000DE910104DE204204EE2C3
S31560023AF000304FE1D3000EF104002DE9F05F2DE9AD
S31560023B00F000B1E8F0002DE908002DE92C409FE5B0
S31560023B10005094E500D085E524609FE5006096E557
S31560023B2000D096E51000BDE804F06FE1FFDFFDE826
S31560023B300FE0A0E1FF5FADE800F08DE50C8D0210AD
S31560023B40048D0210088D021010EEB00F00F00F0007
S31560023B507047000010B500BF0DA008F0C1F8FFF76E
S31560023B6062EF044604E0262204A103A008F01CF8D2
S31560023B70002CF8D110BD00003000000072745F683E
S31560023B80775F6370755F73687574646F776E0000D4
S31560023B9073687574646F776E2E2E2E0A00000000AD
S31560023BA00146000A40EA012080B2704701460802D7
S31560023BB000F47F0040EA01600A46120A02F47F427C
S31560023BC0104340EA1160704770B410F8013B11F877
S31560023BD0014B2546AB4209D043F020063546613D8E
S31560023BE01A2D0AD244F02004A64206D11446621E59
S31560023BF0002C04D0002BE8D101E0012000E0002077
S31560023C0070BC704770B504460E461546002C02D14C
S31560023C106FF0FE0070BD304600F010F8002802D04A
S31560023C206FF0FE0070BD3246092120460BF09AFF06
S31560023C30E583002084F82200208470BD09210CF0FF
S31560023C40B7B838B504460025002C06D1BC220FF25F
S31560023C5000310FF2EC2007F0A7FFE16A002918D0C5
S31560023C60A07FC00615D42046884705000DD00FF206
S31560023C70F02008F035F82A462146B04808F030F8B8
S31560023C800FF2F42008F02CF803E0E08B40F010000D
S31560023C90E083284632BD000070B505460E46002414
S31560023CA0002D06D1E1220FF2D8210FF2942007F0FF
S31560023CB07BFF28460CF06CF8092805D0E2220FF249
S31560023CC0C0219D4807F070FFA87FC00619D4E96A33
S31560023CD0002912D02846884704000ED00FF28020B1
S31560023CE007F0FEFF22462946944807F0F9FF0FF2D5
S31560023CF0882007F0F5FF204670BDE88B40F0100083
S31560023D00E883298C01F00800AA7F120704D50028EF
S31560023D1002D06FF0330070BD002806D040F60F72F5
S31560023D2011403046024091420DD005F12C004268A6
S31560023D30002A04D0314628469047044603E040F6FE
S31560023D400F7006402E84002C02D014F14A0F12D155
S31560023D50288C40F00800288495F82200401C85F8DB
S31560023D602200C0B2002806D14FF48A720FF21021E7
S31560023D7087A007F019FF204670BD000070B50446A3
S31560023D800025002C40F0078040F227120FF2142122
S31560023D906BA007F009FF20460BF0FAFF092805D051
S31560023DA04FF494727FA1644807F0FEFE04F1200688
S31560023DB0B078002802D16FF0FE0070BD401EB07070
S31560023DC0C0B2002801D0284670BD7169002902D0B0
S31560023DD0204688470546002D02D015F14A0F01D1CB
S31560023DE000203080284670BD2DE9F04104468846A1
S31560023DF016461F46002C06D140F255120FF2B41138
S31560023E004FA007F0D1FE20460BF0C2FF092805D06D
S31560023E104FF4AB7267A1484807F0C6FE94F82200D9
S31560023E20002805D16FF0FE0007F087FD00200DE047
S31560023E30A56B002D05D03B46324641462046A84733
S31560023E4004E06FF0490007F078FD0020BDE8F081DC
S31560023E502DE9F0410446884616461F46002C06D1D7
S31560023E604FF4C0720FF25C1135A007F09DFE20463A
S31560023E700BF08EFF092805D040F2811251A12E481F
S31560023E8007F092FE94F82200002805D16FF0FE003A
S31560023E9007F053FD00200DE0E56B002D05D03B4693
S31560023EA0324641462046A84704E06FF0490007F0D3
S31560023EB044FD0020BDE8F08170B504460E46154605
S31560023EC0002C06D14FF4D2720FF208111CA007F033
S31560023ED06BFE20460BF05CFF092805D040F2A51266
S31560023EE03CA1154807F060FE236C002B05D02A46DC
S31560023EF031462046BDE8704018476FF0490070BDF4
S31560023F0038B504460D46002C40F007804FF4E07247
S31560023F100FF2D4010AA007F047FE20460BF038FFE5
S31560023F20092805D040F2C1122FA1034807F03CFED2
S31560023F306562002032BD0000D808021070090210C6
S31560023F4064657620213D2052545F4E554C4C0000EC
S31560023F5072745F6465766963655F696E6974000031
S31560023F601B5B33316D5B452F6B65726E656C2E64C0
S31560023F7065766963655D20001B5B306D0A00000033
S31560023F8072745F6465766963655F6F70656E000003
S31560023F906465762D3E7265665F636F756E74202109
S31560023FA03D20300072745F6465766963655F636C39
S31560023FB06F73650072745F6465766963655F726567
S31560023FC06164000072745F6465766963655F7772C7
S31560023FD06974650072745F6465766963655F636F51
S31560023FE06E74726F6C00000072745F6465766963EA
S31560023FF0655F7365745F72785F696E6469636174C5
S3156002400065000000704770B506460D4602281ADA4A
S31560024010DFF8CC18002D11D02A6841F82020DFF88D
S31560024020C4080468002C0ED004F13E0009F0AAFC14
S315600240302A46314609F0BCFE2468F3E7DFF8A82871
S31560024040126841F8202070BD5FE2F8B505460C465D
S31560024050002701E07F1CFFB2042F17DADFF88C0815
S3156002406007EB071110EB0116B07A0328F2D14FF471
S31560024070807206F110012846FFF7A6FD0028E9D1F5
S31560024080002C01D0706820600020F2BD6FF00F0036
S31560024090F2BDF8B504460D461646314689B2284643
S315600240A00CF0E0FB0746761C002F1ED407F0C0001A
S315600240B0C0280ED119E0314689B228460CF0D2FBEF
S315600240C0002812D42178C0B281420ED1761C641CBB
S315600240D07F1E002FEFDC641C314689B228460CF045
S315600240E0C1FB002801D4D8D102E04FF6FF70F2BDC1
S315600240F0761C304680B2F2BD38B504460D46294676
S3156002410089B220460CF0AEFB6D1C002812D400F07A
S31560024110C001C02911D010FA85F221898A4209DAD2
S315600241204519294689B220460CF09CFB002801D429
S31560024130E5D102E04FF6FF7032BD6D1C284680B2B3
S3156002414032BD2DE9F84F84B00446DFF8A007224657
S3156002415002EB021100EB011B9BF80B00022809DB44
S315600241600FF29C7007F0BCFD40F2FB21DFF880077E
S3156002417014F058FBDFF868579BF80B0055F82000DF
S31560024180002807D10021204600F0E0F800208BF8D5
S315600241900A0074E00BF110001AF044EA01460022AC
S315600241A0123189B210460BF0E9FE040064D0002297
S315600241B00C2101A81AF060EABBF80800FFF7F0FCD0
S315600241C0ADF8040001208DF806004FF48076ADF854
S315600241D008600C2201A920460CF09CFA0BF10F092B
S315600241E00C2709F10109C8464FF0000A03E00AF1FB
S315600241F0010A09F1010999F800002E2801D0002868
S31560024200F5D15246D2B2394689B220460CF03CFB11
S315600242107B1C9BB2A9EB080292B2414620460CF087
S31560024220E7FA57FA8AF77F1C99F800000028D8D176
S315600242300022394689B220460CF026FBADF80060B2
S31560024240ADF802607F1C3B469BB20422694620465B
S315600242500CF0CEFA35239BF80B0005EB8002214663
S315600242609BF80F0005EB8000C06819F0A3FC0546B9
S3156002427020460CF090F801E04FF0FF35284605B075
S31560024280BDE8F08F38B52E2019F00AFE040001D180
S31560024290002032BD1AF0B1FD6FF00705014689B202
S315600242A0B1F5806F01DA284606E0024692B2DFF87F
S315600242B03816204619F054FD0146A942EAD0002874
S315600242C004D0204619F0C5FD002032BD00220FF24F
S315600242D08D21204619F0BAFD204632BD70B5002503
S315600242E0DFF8FC4500E06D1C2946C9B2042904DAF0
S315600242F004EB8100C0680028F5D104290ADA04EBD0
S315600243008106FFF7BFFFF060002803D025722846BA
S31560024310C0B270BD0022207A401C04F10C0301E099
S31560024320521C401C1146C9B204290DDA0146C9B2B3
S31560024330042900DB00200146C9B253F82110002986
S31560024340EED02072C0B270BD042070BDF8B50446CE
S315600243500D4600271BE0DFF89C0507EB470110EBD3
S3156002436081063068002811D0307A214688420DD104
S3156002437072682946DFF87405234603EB031C00EBDB
S315600243800C10103033689847002030607F1C042F71
S31560024390E1DB0025234601E06D1CEDB2042D15DA42
S315600243A09D42F9D04FF4887010FB05F1DFF83C2589
S315600243B05618B67A022EEFD110FB03F010440F3274
S315600243C0525CC17B8A42E7D10421C173DFF81C05C6
S315600243D003EB031110EB0114E17B04290FDADFF81A
S315600243E0005505F10C0050F8210019F032FD05F177
S315600243F00C00E17B002240F821200420E073F1BD2D
S3156002440080B51AF0FAFC80B200220DE0DFF8DC1407
S3156002441002EB021301EB0313997A022902D119897D
S315600244208142EED0521CD2B2042AEFDB02BD0000FA
S3156002443038B505462C46042C09DB0FF2DC4007F042
S315600244404FFC40F20641DFF8A80414F0EBF9DFF8FE
S315600244509C0404EB041110EB0114A07A032847D8DC
S31560024460DFE800F05202113DFFF7CAFF2081022009
S31560024470A0720020E072012020730020607328463B
S31560024480BDE832405DE6207B401E2073C0B2002844
S315600244903AD1617B491C61730846C0B2042819D1BE
S315600244A0E17A0846421C012A0DDCDFF8342402EB6D
S315600244B080004068002806D0491CE1720120207302
S315600244C00020607307E000212846FFF73FFF0020C7
S315600244D0A07231BD21732846BDE8324031E62068BC
S315600244E0002802D0401E20600ED10020A07231BD8D
S315600244F00FF2404007F0F4FB40F24541DFF8F0036B
S31560024500BDE8344014F08EB931BD10B5002404E024
S315600245102046C0B2FFF78CFF641C2046C0B2042856
S31560024520F6DB10BD70B5034603EB03121501DFF827
S31560024530BC6374190322A2727151DFF8BC239142E3
S3156002454000D97251211DFFF701FF7059002804D16D
S31560024550A07A032801D10020A07270BD2DE9F04730
S3156002456088B01646984630891028C0F2C380002368
S315600245700C2204A930460CF067F80C2840F0BA8089
S31560024580BDF81000FFF70CFB0025DFF8602300E0A2
S315600245906D1C2946C9B2042980F2AC8001EB011375
S315600245A012EB0317B97A0229F2D139898142EFD126
S315600245B0BDF81400FFF7F4FA8146BDF81600FFF75E
S315600245C0EFFA04469DF81200000640F19380B9F1B5
S315600245D0010F40F08F80D8F80000C149FA7A51F88D
S315600245E02210884240F086800C22314607F1100084
S315600245F0FFF74FFD81464FF6FF78494640468142B6
S3156002460078D04B460422694630460CF01DF80428E1
S3156002461070D1BDF80200B0F5807F6BD1BDF80000A5
S31560024620B0F5807F66D109F104099DF8130010F098
S315600246300F0F02D1B24649461AE030460BF0ABFE86
S3156002464000212846C0B2FFF781FE0020B87254E00E
S31560024650BDF80C00FFF7A4FA10FA89F0B0F5803FB6
S3156002466048DABDF80C00FFF79BFA01464944641E1E
S31560024670204680B20028E0D00A46BAF8080092B214
S315600246808242DAD289B25046FFF736FD814641460A
S3156002469088422FD04B460A2201A950460BF0D4FF1E
